{
  "contractName": "EHRS",
  "abi": [
    {
      "inputs": [],
      "payable": false,
      "stateMutability": "nonpayable",
      "type": "constructor"
    },
    {
      "constant": true,
      "inputs": [],
      "name": "hashValue",
      "outputs": [
        {
          "internalType": "string",
          "name": "",
          "type": "string"
        }
      ],
      "payable": false,
      "stateMutability": "view",
      "type": "function"
    },
    {
      "constant": true,
      "inputs": [
        {
          "internalType": "address",
          "name": "",
          "type": "address"
        }
      ],
      "name": "patientRecords",
      "outputs": [
        {
          "internalType": "bool",
          "name": "exists",
          "type": "bool"
        },
        {
          "internalType": "bool",
          "name": "patientSigned",
          "type": "bool"
        },
        {
          "internalType": "uint256",
          "name": "recid",
          "type": "uint256"
        },
        {
          "internalType": "address",
          "name": "doctor",
          "type": "address"
        },
        {
          "internalType": "string",
          "name": "ipfsHash",
          "type": "string"
        }
      ],
      "payable": false,
      "stateMutability": "view",
      "type": "function"
    },
    {
      "constant": true,
      "inputs": [
        {
          "internalType": "address",
          "name": "",
          "type": "address"
        }
      ],
      "name": "roleMembers",
      "outputs": [
        {
          "internalType": "enum EHRS.RoleTypes",
          "name": "",
          "type": "uint8"
        }
      ],
      "payable": false,
      "stateMutability": "view",
      "type": "function"
    },
    {
      "constant": false,
      "inputs": [
        {
          "internalType": "enum EHRS.RoleTypes",
          "name": "role",
          "type": "uint8"
        },
        {
          "internalType": "address",
          "name": "account",
          "type": "address"
        }
      ],
      "name": "assignRole",
      "outputs": [],
      "payable": false,
      "stateMutability": "nonpayable",
      "type": "function"
    },
    {
      "constant": true,
      "inputs": [
        {
          "internalType": "address",
          "name": "sender",
          "type": "address"
        }
      ],
      "name": "getMemberRole",
      "outputs": [
        {
          "internalType": "enum EHRS.RoleTypes",
          "name": "",
          "type": "uint8"
        }
      ],
      "payable": false,
      "stateMutability": "view",
      "type": "function"
    },
    {
      "constant": false,
      "inputs": [
        {
          "internalType": "address",
          "name": "patient",
          "type": "address"
        },
        {
          "internalType": "string",
          "name": "ipfsHash",
          "type": "string"
        }
      ],
      "name": "addRecord",
      "outputs": [],
      "payable": false,
      "stateMutability": "nonpayable",
      "type": "function"
    },
    {
      "constant": false,
      "inputs": [
        {
          "internalType": "address",
          "name": "patient",
          "type": "address"
        },
        {
          "internalType": "string",
          "name": "ipfsHash",
          "type": "string"
        }
      ],
      "name": "updateRecord",
      "outputs": [],
      "payable": false,
      "stateMutability": "nonpayable",
      "type": "function"
    },
    {
      "constant": false,
      "inputs": [],
      "name": "updateRecordByPatient",
      "outputs": [],
      "payable": false,
      "stateMutability": "nonpayable",
      "type": "function"
    },
    {
      "constant": false,
      "inputs": [
        {
          "internalType": "address",
          "name": "patient",
          "type": "address"
        }
      ],
      "name": "deleteRecord",
      "outputs": [],
      "payable": false,
      "stateMutability": "nonpayable",
      "type": "function"
    },
    {
      "constant": true,
      "inputs": [
        {
          "internalType": "address",
          "name": "patient",
          "type": "address"
        }
      ],
      "name": "getRecord",
      "outputs": [
        {
          "internalType": "string",
          "name": "ipfsHash",
          "type": "string"
        }
      ],
      "payable": false,
      "stateMutability": "view",
      "type": "function"
    },
    {
      "constant": false,
      "inputs": [
        {
          "internalType": "address",
          "name": "doctor",
          "type": "address"
        }
      ],
      "name": "addDoctor",
      "outputs": [],
      "payable": false,
      "stateMutability": "nonpayable",
      "type": "function"
    },
    {
      "constant": false,
      "inputs": [
        {
          "internalType": "address",
          "name": "healthCareProvider",
          "type": "address"
        }
      ],
      "name": "addhealthCareProvider",
      "outputs": [],
      "payable": false,
      "stateMutability": "nonpayable",
      "type": "function"
    }
  ],
  "bytecode": "0x60806040526000805533600260006101000a81548173ffffffffffffffffffffffffffffffffffffffff021916908373ffffffffffffffffffffffffffffffffffffffff1602179055506040518060400160405280600481526020017f6e6f6e65000000000000000000000000000000000000000000000000000000008152506003908051906020019062000096929190620000ab565b50348015620000a457600080fd5b506200015a565b828054600181600116156101000203166002900490600052602060002090601f016020900481019282601f10620000ee57805160ff19168380011785556200011f565b828001600101855582156200011f579182015b828111156200011e57825182559160200191906001019062000101565b5b5090506200012e919062000132565b5090565b6200015791905b808211156200015357600081600090555060010162000139565b5090565b90565b612562806200016a6000396000f3fe608060405234801561001057600080fd5b50600436106100b45760003560e01c80634dcdf0c2116100715780634dcdf0c214610341578063617fba041461038557806366858ec814610442578063696397491461051d57806388a5bf6e14610583578063e840af51146105d4576100b4565b80630d1f3471146100b9578063200a1b91146100fd578063249adc951461020a5780632b92b8e5146102145780633b90247a146102975780634780468f146102fd575b600080fd5b6100fb600480360360208110156100cf57600080fd5b81019080803573ffffffffffffffffffffffffffffffffffffffff1690602001909291905050506106af565b005b61013f6004803603602081101561011357600080fd5b81019080803573ffffffffffffffffffffffffffffffffffffffff169060200190929190505050610b3b565b6040518086151515158152602001851515151581526020018481526020018373ffffffffffffffffffffffffffffffffffffffff1673ffffffffffffffffffffffffffffffffffffffff16815260200180602001828103825283818151815260200191508051906020019080838360005b838110156101cb5780820151818401526020810190506101b0565b50505050905090810190601f1680156101f85780820380516001836020036101000a031916815260200191505b50965050505050505060405180910390f35b610212610c43565b005b61021c611037565b6040518080602001828103825283818151815260200191508051906020019080838360005b8381101561025c578082015181840152602081019050610241565b50505050905090810190601f1680156102895780820380516001836020036101000a031916815260200191505b509250505060405180910390f35b6102d9600480360360208110156102ad57600080fd5b81019080803573ffffffffffffffffffffffffffffffffffffffff1690602001909291905050506110d5565b604051808260038111156102e957fe5b60ff16815260200191505060405180910390f35b61033f6004803603602081101561031357600080fd5b81019080803573ffffffffffffffffffffffffffffffffffffffff1690602001909291905050506110f5565b005b6103836004803603602081101561035757600080fd5b81019080803573ffffffffffffffffffffffffffffffffffffffff169060200190929190505050611103565b005b6103c76004803603602081101561039b57600080fd5b81019080803573ffffffffffffffffffffffffffffffffffffffff169060200190929190505050611111565b6040518080602001828103825283818151815260200191508051906020019080838360005b838110156104075780820151818401526020810190506103ec565b50505050905090810190601f1680156104345780820380516001836020036101000a031916815260200191505b509250505060405180910390f35b61051b6004803603604081101561045857600080fd5b81019080803573ffffffffffffffffffffffffffffffffffffffff1690602001909291908035906020019064010000000081111561049557600080fd5b8201836020820111156104a757600080fd5b803590602001918460018302840111640100000000831117156104c957600080fd5b91908080601f016020809104026020016040519081016040528093929190818152602001838380828437600081840152601f19601f820116905080830192505050505050509192919290505050611553565b005b61055f6004803603602081101561053357600080fd5b81019080803573ffffffffffffffffffffffffffffffffffffffff1690602001909291905050506119d9565b6040518082600381111561056f57fe5b60ff16815260200191505060405180910390f35b6105d26004803603604081101561059957600080fd5b81019080803560ff169060200190929190803573ffffffffffffffffffffffffffffffffffffffff169060200190929190505050611b07565b005b6106ad600480360360408110156105ea57600080fd5b81019080803573ffffffffffffffffffffffffffffffffffffffff1690602001909291908035906020019064010000000081111561062757600080fd5b82018360208201111561063957600080fd5b8035906020019184600183028401116401000000008311171561065b57600080fd5b91908080601f016020809104026020016040519081016040528093929190818152602001838380828437600081840152601f19601f820116905080830192505050505050509192919290505050611eb0565b005b60006106ba336119d9565b9050600160038111156106c957fe5b8160038111156106d557fe5b14610748576040517f08c379a000000000000000000000000000000000000000000000000000000000815260040180806020018281038252601d8152602001807f6f6e6c7920646f63746f722063616e2064656c657465207265636f726400000081525060200191505060405180910390fd5b610751826119d9565b90506002600381111561076057fe5b81600381111561076c57fe5b146107df576040517f08c379a00000000000000000000000000000000000000000000000000000000081526004018080602001828103825260198152602001807f70617469656e74206e6f7420696e207468652073797374656d0000000000000081525060200191505060405180910390fd5b60011515600460008473ffffffffffffffffffffffffffffffffffffffff1673ffffffffffffffffffffffffffffffffffffffff16815260200190815260200160002060000160009054906101000a900460ff161515146108a8576040517f08c379a000000000000000000000000000000000000000000000000000000000815260040180806020018281038252601e8152602001807f50617469656e74205265636f726420646f6573206e6f7420657869737420000081525060200191505060405180910390fd5b6108b0612346565b600460008473ffffffffffffffffffffffffffffffffffffffff1673ffffffffffffffffffffffffffffffffffffffff1681526020019081526020016000206040518060a00160405290816000820160009054906101000a900460ff161515151581526020016000820160019054906101000a900460ff16151515158152602001600182015481526020016002820160009054906101000a900473ffffffffffffffffffffffffffffffffffffffff1673ffffffffffffffffffffffffffffffffffffffff1673ffffffffffffffffffffffffffffffffffffffff168152602001600382018054600181600116156101000203166002900480601f016020809104026020016040519081016040528092919081815260200182805460018160011615610100020316600290048015610a295780601f106109fe57610100808354040283529160200191610a29565b820191906000526020600020905b815481529060010190602001808311610a0c57829003601f168201915b5050505050815250509050600081600001901515908115158152505080600460008573ffffffffffffffffffffffffffffffffffffffff1673ffffffffffffffffffffffffffffffffffffffff16815260200190815260200160002060008201518160000160006101000a81548160ff02191690831515021790555060208201518160000160016101000a81548160ff0219169083151502179055506040820151816001015560608201518160020160006101000a81548173ffffffffffffffffffffffffffffffffffffffff021916908373ffffffffffffffffffffffffffffffffffffffff1602179055506080820151816003019080519060200190610b3292919061238f565b50905050505050565b60046020528060005260406000206000915090508060000160009054906101000a900460ff16908060000160019054906101000a900460ff16908060010154908060020160009054906101000a900473ffffffffffffffffffffffffffffffffffffffff1690806003018054600181600116156101000203166002900480601f016020809104026020016040519081016040528092919081815260200182805460018160011615610100020316600290048015610c395780601f10610c0e57610100808354040283529160200191610c39565b820191906000526020600020905b815481529060010190602001808311610c1c57829003601f168201915b5050505050905085565b6000610c4e336119d9565b905060026003811115610c5d57fe5b816003811115610c6957fe5b14610cdc576040517f08c379a000000000000000000000000000000000000000000000000000000000815260040180806020018281038252601f8152602001807f6f6e6c792070617469656e742063616e20617070726f7665207570646174650081525060200191505060405180910390fd5b60011515600460003373ffffffffffffffffffffffffffffffffffffffff1673ffffffffffffffffffffffffffffffffffffffff16815260200190815260200160002060000160009054906101000a900460ff16151514610da5576040517f08c379a000000000000000000000000000000000000000000000000000000000815260040180806020018281038252601e8152602001807f50617469656e74205265636f726420646f6573206e6f7420657869737420000081525060200191505060405180910390fd5b610dad612346565b600460003373ffffffffffffffffffffffffffffffffffffffff1673ffffffffffffffffffffffffffffffffffffffff1681526020019081526020016000206040518060a00160405290816000820160009054906101000a900460ff161515151581526020016000820160019054906101000a900460ff16151515158152602001600182015481526020016002820160009054906101000a900473ffffffffffffffffffffffffffffffffffffffff1673ffffffffffffffffffffffffffffffffffffffff1673ffffffffffffffffffffffffffffffffffffffff168152602001600382018054600181600116156101000203166002900480601f016020809104026020016040519081016040528092919081815260200182805460018160011615610100020316600290048015610f265780601f10610efb57610100808354040283529160200191610f26565b820191906000526020600020905b815481529060010190602001808311610f0957829003601f168201915b5050505050815250509050600181602001901515908115158152505080600460003373ffffffffffffffffffffffffffffffffffffffff1673ffffffffffffffffffffffffffffffffffffffff16815260200190815260200160002060008201518160000160006101000a81548160ff02191690831515021790555060208201518160000160016101000a81548160ff0219169083151502179055506040820151816001015560608201518160020160006101000a81548173ffffffffffffffffffffffffffffffffffffffff021916908373ffffffffffffffffffffffffffffffffffffffff160217905550608082015181600301908051906020019061102f92919061238f565b509050505050565b60038054600181600116156101000203166002900480601f0160208091040260200160405190810160405280929190818152602001828054600181600116156101000203166002900480156110cd5780601f106110a2576101008083540402835291602001916110cd565b820191906000526020600020905b8154815290600101906020018083116110b057829003601f168201915b505050505081565b60016020528060005260406000206000915054906101000a900460ff1681565b611100600182611b07565b50565b61110e600382611b07565b50565b6060600061111e336119d9565b90506000600381111561112d57fe5b81600381111561113957fe5b14156111ad576040517f08c379a000000000000000000000000000000000000000000000000000000000815260040180806020018281038252600d8152602001807f4163636573732064656e6965640000000000000000000000000000000000000081525060200191505060405180910390fd5b6111b6836119d9565b9050600260038111156111c557fe5b8160038111156111d157fe5b14611244576040517f08c379a00000000000000000000000000000000000000000000000000000000081526004018080602001828103825260198152602001807f70617469656e74206e6f7420696e207468652073797374656d0000000000000081525060200191505060405180910390fd5b60011515600460008573ffffffffffffffffffffffffffffffffffffffff1673ffffffffffffffffffffffffffffffffffffffff16815260200190815260200160002060000160009054906101000a900460ff1615151461130d576040517f08c379a000000000000000000000000000000000000000000000000000000000815260040180806020018281038252601e8152602001807f50617469656e74205265636f726420646f6573206e6f7420657869737420000081525060200191505060405180910390fd5b60011515600460008573ffffffffffffffffffffffffffffffffffffffff1673ffffffffffffffffffffffffffffffffffffffff16815260200190815260200160002060000160019054906101000a900460ff161515146113b9576040517f08c379a00000000000000000000000000000000000000000000000000000000081526004018080602001828103825260268152602001806124b56026913960400191505060405180910390fd5b6113c1612346565b600460008573ffffffffffffffffffffffffffffffffffffffff1673ffffffffffffffffffffffffffffffffffffffff1681526020019081526020016000206040518060a00160405290816000820160009054906101000a900460ff161515151581526020016000820160019054906101000a900460ff16151515158152602001600182015481526020016002820160009054906101000a900473ffffffffffffffffffffffffffffffffffffffff1673ffffffffffffffffffffffffffffffffffffffff1673ffffffffffffffffffffffffffffffffffffffff168152602001600382018054600181600116156101000203166002900480601f01602080910402602001604051908101604052809291908181526020018280546001816001161561010002031660029004801561153a5780601f1061150f5761010080835404028352916020019161153a565b820191906000526020600020905b81548152906001019060200180831161151d57829003601f168201915b5050505050815250509050806080015192505050919050565b600061155e336119d9565b90506001600381111561156d57fe5b81600381111561157957fe5b146115ec576040517f08c379a000000000000000000000000000000000000000000000000000000000815260040180806020018281038252601a8152602001807f6f6e6c7920646f63746f722063616e20616464207265636f726400000000000081525060200191505060405180910390fd5b60001515600460008573ffffffffffffffffffffffffffffffffffffffff1673ffffffffffffffffffffffffffffffffffffffff16815260200190815260200160002060000160009054906101000a900460ff161515146116b5576040517f08c379a00000000000000000000000000000000000000000000000000000000081526004018080602001828103825260158152602001807f50617469656e74205265636f726420657869737420000000000000000000000081525060200191505060405180910390fd5b6116c0600284611b07565b6116c8612346565b600460008573ffffffffffffffffffffffffffffffffffffffff1673ffffffffffffffffffffffffffffffffffffffff1681526020019081526020016000206040518060a00160405290816000820160009054906101000a900460ff161515151581526020016000820160019054906101000a900460ff16151515158152602001600182015481526020016002820160009054906101000a900473ffffffffffffffffffffffffffffffffffffffff1673ffffffffffffffffffffffffffffffffffffffff1673ffffffffffffffffffffffffffffffffffffffff168152602001600382018054600181600116156101000203166002900480601f0160208091040260200160405190810160405280929190818152602001828054600181600116156101000203166002900480156118415780601f1061181657610100808354040283529160200191611841565b820191906000526020600020905b81548152906001019060200180831161182457829003601f168201915b505050505081525050905060018160000190151590811515815250506001600080828254019250508190555060005481604001818152505033816060019073ffffffffffffffffffffffffffffffffffffffff16908173ffffffffffffffffffffffffffffffffffffffff1681525050828160800181905250600181602001901515908115158152505080600460008673ffffffffffffffffffffffffffffffffffffffff1673ffffffffffffffffffffffffffffffffffffffff16815260200190815260200160002060008201518160000160006101000a81548160ff02191690831515021790555060208201518160000160016101000a81548160ff0219169083151502179055506040820151816001015560608201518160020160006101000a81548173ffffffffffffffffffffffffffffffffffffffff021916908373ffffffffffffffffffffffffffffffffffffffff16021790555060808201518160030190805190602001906119b892919061238f565b5090505082600390805190602001906119d292919061240f565b5050505050565b60008060038111156119e757fe5b600160008473ffffffffffffffffffffffffffffffffffffffff1673ffffffffffffffffffffffffffffffffffffffff16815260200190815260200160002060009054906101000a900460ff166003811115611a3f57fe5b1415611ab3576040517f08c379a00000000000000000000000000000000000000000000000000000000081526004018080602001828103825260158152602001807f6d656d62657220646f6573206e6f74206578697374000000000000000000000081525060200191505060405180910390fd5b600160008373ffffffffffffffffffffffffffffffffffffffff1673ffffffffffffffffffffffffffffffffffffffff16815260200190815260200160002060009054906101000a900460ff169050919050565b60016003811115611b1457fe5b826003811115611b2057fe5b1415611c4a57600260009054906101000a900473ffffffffffffffffffffffffffffffffffffffff1673ffffffffffffffffffffffffffffffffffffffff163373ffffffffffffffffffffffffffffffffffffffff1614611be9576040517f08c379a000000000000000000000000000000000000000000000000000000000815260040180806020018281038252601a8152602001807f4f6e6c792041646d696e2063616e2061646420646f63746f727300000000000081525060200191505060405180910390fd5b60018060008373ffffffffffffffffffffffffffffffffffffffff1673ffffffffffffffffffffffffffffffffffffffff16815260200190815260200160002060006101000a81548160ff02191690836003811115611c4457fe5b02179055505b600380811115611c5657fe5b826003811115611c6257fe5b1415611d7057600260009054906101000a900473ffffffffffffffffffffffffffffffffffffffff1673ffffffffffffffffffffffffffffffffffffffff163373ffffffffffffffffffffffffffffffffffffffff1614611d0e576040517f08c379a00000000000000000000000000000000000000000000000000000000081526004018080602001828103825260278152602001806125076027913960400191505060405180910390fd5b6003600160008373ffffffffffffffffffffffffffffffffffffffff1673ffffffffffffffffffffffffffffffffffffffff16815260200190815260200160002060006101000a81548160ff02191690836003811115611d6a57fe5b02179055505b60026003811115611d7d57fe5b826003811115611d8957fe5b1415611eac5760016003811115611d9c57fe5b600160003373ffffffffffffffffffffffffffffffffffffffff1673ffffffffffffffffffffffffffffffffffffffff16815260200190815260200160002060009054906101000a900460ff166003811115611df457fe5b14611e4a576040517f08c379a000000000000000000000000000000000000000000000000000000000815260040180806020018281038252602c8152602001806124db602c913960400191505060405180910390fd5b6002600160008373ffffffffffffffffffffffffffffffffffffffff1673ffffffffffffffffffffffffffffffffffffffff16815260200190815260200160002060006101000a81548160ff02191690836003811115611ea657fe5b02179055505b5050565b6000611ebb336119d9565b905060016003811115611eca57fe5b816003811115611ed657fe5b14611f49576040517f08c379a000000000000000000000000000000000000000000000000000000000815260040180806020018281038252601d8152602001807f6f6e6c7920646f63746f722063616e20757064617465207265636f726400000081525060200191505060405180910390fd5b611f52836119d9565b905060026003811115611f6157fe5b816003811115611f6d57fe5b14611fe0576040517f08c379a00000000000000000000000000000000000000000000000000000000081526004018080602001828103825260198152602001807f70617469656e74206e6f7420696e207468652073797374656d0000000000000081525060200191505060405180910390fd5b60011515600460008573ffffffffffffffffffffffffffffffffffffffff1673ffffffffffffffffffffffffffffffffffffffff16815260200190815260200160002060000160009054906101000a900460ff161515146120a9576040517f08c379a000000000000000000000000000000000000000000000000000000000815260040180806020018281038252601e8152602001807f50617469656e74205265636f726420646f6573206e6f7420657869737420000081525060200191505060405180910390fd5b6120b1612346565b600460008573ffffffffffffffffffffffffffffffffffffffff1673ffffffffffffffffffffffffffffffffffffffff1681526020019081526020016000206040518060a00160405290816000820160009054906101000a900460ff161515151581526020016000820160019054906101000a900460ff16151515158152602001600182015481526020016002820160009054906101000a900473ffffffffffffffffffffffffffffffffffffffff1673ffffffffffffffffffffffffffffffffffffffff1673ffffffffffffffffffffffffffffffffffffffff168152602001600382018054600181600116156101000203166002900480601f01602080910402602001604051908101604052809291908181526020018280546001816001161561010002031660029004801561222a5780601f106121ff5761010080835404028352916020019161222a565b820191906000526020600020905b81548152906001019060200180831161220d57829003601f168201915b5050505050815250509050828160800181905250600081602001901515908115158152505080600460008673ffffffffffffffffffffffffffffffffffffffff1673ffffffffffffffffffffffffffffffffffffffff16815260200190815260200160002060008201518160000160006101000a81548160ff02191690831515021790555060208201518160000160016101000a81548160ff0219169083151502179055506040820151816001015560608201518160020160006101000a81548173ffffffffffffffffffffffffffffffffffffffff021916908373ffffffffffffffffffffffffffffffffffffffff160217905550608082015181600301908051906020019061233c92919061238f565b5090505050505050565b6040518060a0016040528060001515815260200160001515815260200160008152602001600073ffffffffffffffffffffffffffffffffffffffff168152602001606081525090565b828054600181600116156101000203166002900490600052602060002090601f016020900481019282601f106123d057805160ff19168380011785556123fe565b828001600101855582156123fe579182015b828111156123fd5782518255916020019190600101906123e2565b5b50905061240b919061248f565b5090565b828054600181600116156101000203166002900490600052602060002090601f016020900481019282601f1061245057805160ff191683800117855561247e565b8280016001018555821561247e579182015b8281111561247d578251825591602001919060010190612462565b5b50905061248b919061248f565b5090565b6124b191905b808211156124ad576000816000905550600101612495565b5090565b9056fe50617469656e74205265636f72642074656d706f726172696c7920756e617661696c61626c654f6e6c792061646d696e20656e726f6c6c656420646f63746f72732063616e206164642070617469656e74734f6e6c792041646d696e2063616e20616464206865616c746820636172652070726f7669646572a265627a7a72315820d52c825533abf4c9facb0eb3fee575603af5418ea87bca186ee5a6683a6d5ddc64736f6c63430005100032",
  "source": "// SPDX-License-Identifier: MIT\npragma solidity >=0.4.22 <0.8.0;\n\n/// @title Contract for managing the Electronic Health records of patients\n\ncontract EHRS {\n\n    uint256 numRecs = 0;\n\n    enum RoleTypes\n    {\n        none,\n        doctor,\n        patient,\n        healthCareProvider  \n    }\n    \n    mapping(address => RoleTypes) public roleMembers;\n\n    /// @dev All the money from will be tranfered to this account.\n    address payable admin = msg.sender;\n    string public hashValue = \"none\";\n\n    struct PatientInfo {\n         bool exists;\n         bool patientSigned;\n         uint256 recid;\n         address doctor;\n         string ipfsHash;\n    }\n    mapping(address => PatientInfo) public patientRecords;\n    // mapping(address => PatientInfo) public patientPrevRecords;\n\n\n    /// @dev function used to assign roles to accounts\n    /// @param account address of the doctor or patient\n    /// @param role is the number of dice\n    function assignRole(RoleTypes role, address account) public {\n\n        if (role == RoleTypes.doctor) {\n          require(msg.sender == admin, \"Only Admin can add doctors\");\n          roleMembers[account] = RoleTypes.doctor;\n\n        }\n        if (role == RoleTypes.healthCareProvider) {\n          require(msg.sender == admin, \"Only Admin can add health care provider\");\n          roleMembers[account] = RoleTypes.healthCareProvider;\n\n        }\n        if (role == RoleTypes.patient) {\n          require(roleMembers[msg.sender] == RoleTypes.doctor, \"Only admin enrolled doctors can add patients\");\n          roleMembers[account] = RoleTypes.patient;\n        }\n        \n    }\n\n\n    function getMemberRole(address sender) public view  returns (RoleTypes){\n        require(roleMembers[sender] != RoleTypes.none, \"member does not exist\");\n        return (roleMembers[sender]);\n\n    }\n   \n    /// @notice Constructor initialize default values\n    constructor ()  public {\n \n    }\n    function addRecord(address patient, string memory ipfsHash) public {\n        RoleTypes role = getMemberRole(msg.sender);\n        require(role == RoleTypes.doctor, \"only doctor can add record\");\n        require(patientRecords[patient].exists == false, \"Patient Record exist \");\n        assignRole(RoleTypes.patient, patient);\n        PatientInfo memory info = patientRecords[patient];\n        info.exists = true;\n        numRecs += 1;\n        info.recid = numRecs;\n        info.doctor = msg.sender;\n        info.ipfsHash = ipfsHash;\n        info.patientSigned = true;\n        patientRecords[patient] = info;\n        hashValue = ipfsHash;\n    }\n\n    function updateRecord(address patient, string memory ipfsHash) public {\n        // RoleTypes role = getMemberRole();\n        RoleTypes role = getMemberRole(msg.sender);\n        require(role == RoleTypes.doctor, \"only doctor can update record\");\n        role = getMemberRole(patient);\n        require(role == RoleTypes.patient, \"patient not in the system\");\n        require(patientRecords[patient].exists == true, \"Patient Record does not exist \");\n        PatientInfo memory info = patientRecords[patient];\n        info.ipfsHash = ipfsHash;\n        info.patientSigned = false;\n        patientRecords[patient] = info;\n    }\n    function updateRecordByPatient() public {\n        // RoleTypes role = getMemberRole();\n        RoleTypes role = getMemberRole(msg.sender);\n        require(role == RoleTypes.patient, \"only patient can approve update\");\n        require(patientRecords[msg.sender].exists == true, \"Patient Record does not exist \");\n        PatientInfo memory info = patientRecords[msg.sender];\n        info.patientSigned = true;\n        patientRecords[msg.sender] = info;\n    }\n\n    function deleteRecord(address patient) public {\n        // RoleTypes role = getMemberRole();\n        RoleTypes role = getMemberRole(msg.sender);\n        require(role == RoleTypes.doctor, \"only doctor can delete record\");\n        role = getMemberRole(patient);\n        require(role == RoleTypes.patient, \"patient not in the system\");\n        require(patientRecords[patient].exists == true, \"Patient Record does not exist \");\n        PatientInfo memory info = patientRecords[patient];\n        info.exists = false;\n        patientRecords[patient] = info;\n    }\n\n    function getRecord(address patient) public view returns (string memory ipfsHash) {\n\n        RoleTypes role = getMemberRole(msg.sender);\n        require(role != RoleTypes.none, \"Access denied\");\n        role = getMemberRole(patient);\n        require(role == RoleTypes.patient, \"patient not in the system\");\n        require(patientRecords[patient].exists == true, \"Patient Record does not exist \");\n        require(patientRecords[patient].patientSigned == true, \"Patient Record temporarily unavailable\");\n        PatientInfo memory info = patientRecords[patient];\n        return info.ipfsHash;   \n    }\n    function addDoctor(address doctor) public {\n        assignRole(RoleTypes.doctor, doctor);\n    }\n\n    function addhealthCareProvider(address healthCareProvider) public {\n        assignRole(RoleTypes.healthCareProvider, healthCareProvider);\n    }\n\n    \n\n    \n\n    \n}",
  "sourcePath": "/home/hareesh/Desktop/sem7/blockchain/project/EHRS/contracts/EHRS.sol",
  "compiler": {
    "name": "solc",
    "version": "0.5.16+commit.9c3226ce.Emscripten.clang"
  },
  "schemaVersion": "3.2.5",
  "updatedAt": "2020-11-20T17:23:08.274Z",
  "devdoc": {
    "methods": {
      "assignRole(uint8,address)": {
        "details": "function used to assign roles to accounts",
        "params": {
          "account": "address of the doctor or patient",
          "role": "is the number of dice"
        }
      }
    },
    "title": "Contract for managing the Electronic Health records of patients"
  },
  "userdoc": {
    "methods": {
      "constructor": "Constructor initialize default values"
    }
  }
}