{
  "contractName": "Role",
  "abi": [
    {
      "inputs": [],
      "payable": false,
      "stateMutability": "nonpayable",
      "type": "constructor"
    },
    {
      "constant": true,
      "inputs": [
        {
          "internalType": "address",
          "name": "",
          "type": "address"
        }
      ],
      "name": "roleMembers",
      "outputs": [
        {
          "internalType": "enum Role.RoleTypes",
          "name": "",
          "type": "uint8"
        }
      ],
      "payable": false,
      "stateMutability": "view",
      "type": "function"
    },
    {
      "constant": false,
      "inputs": [
        {
          "internalType": "enum Role.RoleTypes",
          "name": "role",
          "type": "uint8"
        },
        {
          "internalType": "address",
          "name": "account",
          "type": "address"
        },
        {
          "internalType": "address",
          "name": "sender",
          "type": "address"
        }
      ],
      "name": "assignRole",
      "outputs": [],
      "payable": false,
      "stateMutability": "nonpayable",
      "type": "function"
    },
    {
      "constant": true,
      "inputs": [
        {
          "internalType": "address",
          "name": "sender",
          "type": "address"
        }
      ],
      "name": "getMemberRole",
      "outputs": [
        {
          "internalType": "enum Role.RoleTypes",
          "name": "",
          "type": "uint8"
        }
      ],
      "payable": false,
      "stateMutability": "view",
      "type": "function"
    }
  ],
  "bytecode": "0x608060405233600160006101000a81548173ffffffffffffffffffffffffffffffffffffffff021916908373ffffffffffffffffffffffffffffffffffffffff16021790555034801561005157600080fd5b50610618806100616000396000f3fe608060405234801561001057600080fd5b50600436106100415760003560e01c80633b90247a1461004657806369639749146100ac5780638af0614514610112575b600080fd5b6100886004803603602081101561005c57600080fd5b81019080803573ffffffffffffffffffffffffffffffffffffffff169060200190929190505050610183565b6040518082600381111561009857fe5b60ff16815260200191505060405180910390f35b6100ee600480360360208110156100c257600080fd5b81019080803573ffffffffffffffffffffffffffffffffffffffff1690602001909291905050506101a3565b604051808260038111156100fe57fe5b60ff16815260200191505060405180910390f35b6101816004803603606081101561012857600080fd5b81019080803560ff169060200190929190803573ffffffffffffffffffffffffffffffffffffffff169060200190929190803573ffffffffffffffffffffffffffffffffffffffff1690602001909291905050506102cf565b005b60006020528060005260406000206000915054906101000a900460ff1681565b60008060038111156101b157fe5b6000808473ffffffffffffffffffffffffffffffffffffffff1673ffffffffffffffffffffffffffffffffffffffff16815260200190815260200160002060009054906101000a900460ff16600381111561020857fe5b141561027c576040517f08c379a00000000000000000000000000000000000000000000000000000000081526004018080602001828103825260158152602001807f6d656d62657220646f6573206e6f74206578697374000000000000000000000081525060200191505060405180910390fd5b6000808373ffffffffffffffffffffffffffffffffffffffff1673ffffffffffffffffffffffffffffffffffffffff16815260200190815260200160002060009054906101000a900460ff169050919050565b600160038111156102dc57fe5b8360038111156102e857fe5b141561041257600160009054906101000a900473ffffffffffffffffffffffffffffffffffffffff1673ffffffffffffffffffffffffffffffffffffffff168173ffffffffffffffffffffffffffffffffffffffff16146103b1576040517f08c379a000000000000000000000000000000000000000000000000000000000815260040180806020018281038252601a8152602001807f4f6e6c792041646d696e2063616e2061646420646f63746f727300000000000081525060200191505060405180910390fd5b60016000808473ffffffffffffffffffffffffffffffffffffffff1673ffffffffffffffffffffffffffffffffffffffff16815260200190815260200160002060006101000a81548160ff0219169083600381111561040c57fe5b02179055505b60038081111561041e57fe5b83600381111561042a57fe5b141561053757600160009054906101000a900473ffffffffffffffffffffffffffffffffffffffff1673ffffffffffffffffffffffffffffffffffffffff168173ffffffffffffffffffffffffffffffffffffffff16146104d6576040517f08c379a00000000000000000000000000000000000000000000000000000000081526004018080602001828103825260278152602001806105bd6027913960400191505060405180910390fd5b60036000808473ffffffffffffffffffffffffffffffffffffffff1673ffffffffffffffffffffffffffffffffffffffff16815260200190815260200160002060006101000a81548160ff0219169083600381111561053157fe5b02179055505b6002600381111561054457fe5b83600381111561055057fe5b14156105b75760026000808473ffffffffffffffffffffffffffffffffffffffff1673ffffffffffffffffffffffffffffffffffffffff16815260200190815260200160002060006101000a81548160ff021916908360038111156105b157fe5b02179055505b50505056fe4f6e6c792041646d696e2063616e20616464206865616c746820636172652070726f7669646572a265627a7a72315820e2e2ab989662e28c6c5592d6f3975a85180488b073f171162e2af10d9dd8400a64736f6c63430005100032",
  "source": "// SPDX-License-Identifier: MIT\npragma solidity >=0.4.22 <0.8.0;\n\n/// @title Contract for  managing Roles\n\ncontract Role {\n    enum RoleTypes\n    {\n        none,\n        doctor,\n        patient,\n        healthCareProvider  \n    }\n    \n    mapping(address => RoleTypes) public roleMembers;\n\n\n    /// @dev All the money from will be tranfered to this account.\n    address payable admin = msg.sender;\n\n   \n    /// @notice Constructor initialize default values\n    constructor () public {\n \n    }\n\n    /// @dev function used to set the number of players and number of dice, in addition, shuffles the dice\n    /// @param account address of the doctor or patient\n    /// @param role is the number of dice\n    function assignRole(RoleTypes role, address account, address sender) public {\n\n        if (role == RoleTypes.doctor) {\n          require(sender == admin, \"Only Admin can add doctors\");\n          roleMembers[account] = RoleTypes.doctor;\n\n        }\n        if (role == RoleTypes.healthCareProvider) {\n          require(sender == admin, \"Only Admin can add health care provider\");\n          roleMembers[account] = RoleTypes.healthCareProvider;\n\n        }\n        if (role == RoleTypes.patient) {\n          // require(roleMembers[msg.sender] == RoleTypes.doctor, \"Only admin enrolled doctors can add patients\");\n          roleMembers[account] = RoleTypes.patient;\n        }\n        \n    }\n    function getMemberRole(address sender) public view  returns (RoleTypes){\n        require(roleMembers[sender] != RoleTypes.none, \"member does not exist\");\n        return (roleMembers[sender]);\n\n    }\n\n\n    \n}",
  "sourcePath": "/home/hareesh/Desktop/sem7/blockchain/project/EHRS/contracts/Role.sol",
  "compiler": {
    "name": "solc",
    "version": "0.5.16+commit.9c3226ce.Emscripten.clang"
  },
  "schemaVersion": "3.2.5",
  "updatedAt": "2020-11-20T17:23:08.279Z",
  "devdoc": {
    "methods": {
      "assignRole(uint8,address,address)": {
        "details": "function used to set the number of players and number of dice, in addition, shuffles the dice",
        "params": {
          "account": "address of the doctor or patient",
          "role": "is the number of dice"
        }
      }
    },
    "title": "Contract for  managing Roles"
  },
  "userdoc": {
    "methods": {
      "constructor": "Constructor initialize default values"
    }
  }
}